:060000000A128A11892C8E
:10091200FC01FD01A001A101A201A301A401A50105
:10092200A60183010A128A118A2DF1000430F00017
:100932007008F200FA30F0007008F300A12CA12C2C
:100942000130F302031DA62CA72CA12CA82C0130E8
:10095200F202031DAD2CAE2C9B2CAF2C0130F10208
:10096200031DB42CB52C972CB62C0800F200F40110
:10097200122D3F30F1007108F4007B2D0630F1009A
:100982007108F4007B2D5B30F1007108F4007B2DBF
:100992004F30F1007108F4007B2D6630F1007108D0
:1009A200F4007B2D6D30F1007108F4007B2D7D3059
:1009B200F1007108F4007B2D0730F1007108F4009A
:1009C2007B2D7F30F1007108F4007B2D6F30F10038
:1009D2007108F4007B2D6D30F1007108F4007B2D5D
:1009E2007730F1007108F4007B2D7130F10071084D
:1009F200F4007B2D7930F1007108F4007B2D7C30FE
:100A0200F1007108F4007B2D5C30F1007108F400F4
:100A12007B2D5430F1007108F4007B2DF4017B2D05
:100A22007B2D7008003A0319BA2C013A0319BF2C26
:100A3200033A0319C42C013A0319C92C073A0319C2
:100A4200CE2C013A0319D32C033A0319D82C013ABC
:100A52000319DD2C0F3A0319E22C013A0319E72C92
:100A6200033A0319EC2C013A0319F12C073A031942
:100A7200F62C013A0319FB2C033A0319002D013A13
:100A82000319052D1F3A03190A2D013A03190F2DD7
:100A92007B2D7B2D7408831203138800892D740823
:100AA200831203138700892D003083120313861BE0
:100AB2000130F1007108F300740886007318622D8A
:100AC200662D831203138617692D8312031386136F
:100AD200892D74088312031385007408F10006300F
:100AE2000310F10CFF3E031D712D710801398900BD
:100AF200892D892D7208003A03194B2D013A0319E9
:100B0200502D033A0319552D013A03196A2D892DE7
:100B1200080083160313850186018030870088014F
:100B220089018312031385018601870188018901E6
:100B3200FC01FD01A201A301A401A5010630A70049
:100B42000030A8007C08F9007908F00000300A1291
:100B52008A11B7240A128A11831203132208F90098
:100B62007908F00001300A128A11B7240A128A1198
:100B7200831203132408F9007908F00002300A12E4
:100B82008A11B7240A128A11831203132708F90063
:100B92007908F00003300A128A11B7240A128A1166
:100BA2008312031386178813FA300A128A119624C5
:100BB2000A128A11FA300A128A1196240A128A112A
:100BC200FA300A128A1196240A128A11FA300A128B
:100BD2008A1196240A128A114C2F06300A128A119F
:100BE20096240A128A117C08F9007908F000003074
:100BF2000A128A11B7240A128A11831203132208D5
:100C0200F9007908F00001300A128A11B7240A1299
:100C12008A11831203132408F9007908F0000230C4
:100C22000A128A11B7240A128A118312031327089F
:100C3200F9007908F00003300A128A11B7240A1267
:100C42008A11FD1F252E262E332E0930FC0000307E
:100C5200FD00FF3083120313A2070318A30AFF301B
:100C6200A3073A2EFF30FC070318FD0AFF30FD07E9
:100C72003A2E83120313A31F3F2E402E882E0930D3
:100C8200A2000030A300FF30A4070318A50AFF301A
:100C9200A50780308606D030A0000730A1000830BA
:100CA200F9007908F00000300A128A11B7240A12FA
:100CB2008A11831203138813762E80308312031352
:100CC2008806FF30A0070318A10AFF30A1071430DD
:100CD200F9007908FA006E2E6E2E0130FA02031D19
:100CE200732E742E6E2E762E762E83120313210807
:100CF200803AFF0080307F02031D812E01302002E6
:100D02000318842E852E5E2E831203138813A51FCB
:100D12008B2E8C2E972E0930A4000030A500FF30B8
:100D2200A7070318A80AFF30A807972EA81F9A2E14
:100D32009B2E4C2FF00100300A128A11B7240A129E
:100D42008A11F00101300A128A11B7240A128A119B
:100D5200F00102300A128A11B7240A128A11F00134
:100D620003300A128A11B7240A128A11831203135A
:100D72008617FA300A128A1196240A128A11FA3058
:100D82000A128A1196240A128A11831203138613F5
:100D9200FA300A128A1196240A128A11FA300A12B9
:100DA2008A1196240A128A111130F9007908F0008A
:100DB20000300A128A11B7240A128A111130F9007E
:100DC2007908F00001300A128A11B7240A128A1136
:100DD2001130F9007908F00002300A128A11B724A2
:100DE2000A128A111130F9007908F00003300A1250
:100DF2008A11B7240A128A11FA300A128A11962429
:100E02000A128A11FA300A128A1196240A128A11D7
:100E12001030F9007908F00000300A128A11B72464
:100E22000A128A110F30F9007908F00001300A1213
:100E32008A11B7240A128A110F30F9007908F000DA
:100E420002300A128A11B7240A128A110E30F900EE
:100E52007908F00003300A128A11B7240A128A11A3
:100E6200322F8030831203138806FF30A007031845
:100E7200A10AFF30A1071430F9007908FB00422FC4
:100E8200422F0130FB02031D472F482F422F322FE2
:100E9200322F322F4C2F83120313871B512F522FC5
:100EA200EE2D8617FA300A128A1196240A128A1136
:100EB200FA300A128A1196240A128A11FA300A1298
:100EC2008A1196240A128A11FA300A128A11962479
:100ED2000A128A11FA300A128A1196240A128A1107
:100EE200FA300A128A1196240A128A11FA300A1268
:100EF2008A1196240A128A11FA300A128A11962449
:100F02000A128A11831203138613872F0D30F900F8
:100F12007908F00000300A128A11B7240A128A11E5
:100F22000C30F9007908F00001300A128A11B72456
:100F32000A128A110B30F9007908F00002300A1205
:100F42008A11B7240A128A110A30F9007908F000CE
:100F520003300A128A11B7240A128A11FA300A12CD
:100F62008A1196240A128A11FA300A128A119624D8
:100F72000A128A11FA300A128A1196240A128A1166
:100F8200FA300A128A1196240A128A111130F900D3
:100F92007908F00000300A128A11B7240A128A1165
:100FA2001130F9007908F00001300A128A11B724D1
:100FB2000A128A111130F9007908F00002300A127F
:100FC2008A11B7240A128A111130F9007908F00047
:100FD20003300A128A11B7240A128A11FA300A124D
:100FE2008A1196240A128A11FA300A128A11962458
:0E0FF2000A128A11872F872F0A128A110028EF
:02400E0032FD81
:00000001FF
